:100000000C942A000C9445000C9445000C94450077
:100010000C9445000C9445000C9445000C94BE14BF
:100020000C9445000C9445000C9445000C9445003C
:100030000C9445000C94DA190C9445000C9445007E
:100040000C9445000C9445000C9445000C9445001C
:100050000C94450011241FBECFE5D8E0DEBFCDBF14
:1000600010E0A0E6B0E0E2EDF7E302C005900D92EB
:10007000A038B107D9F717E0A0E8B0E001C01D92A1
:10008000A03BB107E1F70C949D070C940000EF92A0
:10009000FF920F931F937B018C0120E030E040E042
:1000A0005FE40E943C0488237CF020E030E040E0E4
:1000B0005FE4C801B7010E949A010E9411056050D7
:1000C00070408040904804C0C801B7010E941105EB
:1000D0001F910F91FF90EF900895A0E0B0E0E3E74B
:1000E000F0E00C949D1BFC016A019081923008F4B1
:1000F0001BC1DB018C91823080F0943061F484303C
:1001000009F012C19181EB018981981709F40CC1A2
:10011000E8E7F0E009C1843011F4FB0105C1823049
:1001200091F4923009F000C1EA01DF0188E00D90FE
:1001300009928150E1F78181FB0191818923E601D8
:100140008983F601F1C0923041F362807380EB0144
:100150008A809B80E480F580068117812C813D8117
:100160004E815F815301A818B908C501B7FCABC027
:1001700080970CF457C0861497040CF4BEC0340169
:10018000EE24FF2487019181FB018181981709F4F6
:10019000A6C0992309F49CC02E193F09400B510BAE
:1001A00057FDB0C0E60119827B826A82F601248382
:1001B000358346835783E6012C813D814E815F81E3
:1001C00079018A01DA01C9010197A109B1098F5F9B
:1001D0009F4FAF4FBF43F8F4E6016A817B81A801CE
:1001E0009701220F331F441F551F61507040790142
:1001F0008A01DA01C9010197A109B1098F5F9F4FF7
:10020000AF4FBF4360F3E6017B836A83F60124832B
:1002100035834683578383E0D6018C9357FD39C0DD
:10022000F60182C086149704B4F4C0E0D0E0DA018D
:10023000C90181709070A070B07056954795379540
:100240002795282B392B4A2B5B2B2196CA15DB05CA
:1002500071F78C0E9D1E681479040CF094CFC0E0E9
:10026000D0E05401A618B708D801C701817090707A
:10027000A070B07016950795F794E794E82AF92ACC
:100280000A2B1B2B2196AC16BD0671F76C0E7D1E3A
:100290007ACFDA01C901B695A79597958795217010
:1002A000307040705070282B392B4A2B5B2BE601A5
:1002B0002C833D834E835F838A819B8101969B8340
:1002C0008A83F60131C0882799278A199B0950CF64
:1002D000E21AF30A040B150BA801970161CFE6019E
:1002E00099837B826A822E0D3F1D401F511FF601AC
:1002F00024833583468357838ECF20E030E040E06F
:1003000050E041CF81E0E60189837B826A8250958B
:100310004095309521953F4F4F4F5F4FF601248315
:1003200035834683578347CFCF01EEE0CDB7DEB7A5
:100330000C94B91BA0E2B0E0E0EAF1E00C94A51B3C
:1003400069837A838B839C832D833E834F83588775
:1003500089E0E82EF12CEC0EFD1EB701CE010196CE
:100360000E9495068E010F5E1F4FB801CE010596C3
:100370000E9495068A8991E089278A8BAE01475EA3
:100380005F4FB801C7010E946D000E946105E6E061
:10039000A0960C94C11BA0E2B0E0E1EDF1E00C945A
:1003A000A51B69837A838B839C832D833E834F8334
:1003B000588799E0E92EF12CEC0EFD1EB701CE0115
:1003C00001960E9495068E010F5E1F4FB801CE0167
:1003D00005960E949506AE01475E5F4FB801C701C2
:1003E0000E946D000E946105E6E0A0960C94C11B7E
:1003F000A0E2B0E0EEEFF1E00C94991B69837A8300
:100400008B839C832D833E834F8358878E01075FA8
:100410001F4FB801CE0101960E949506F1E1EF2E23
:10042000F12CEC0EFD1EB701CE0105960E9495063B
:100430008985823078F09989923040F420E09A855D
:100440008A89981321E02A8BB701E9C0843051F4DE
:10045000923061F020E09A858A89981321E02A87FA
:10046000B801DDC0943029F4823041F768E770E0CC
:10047000D6C0823079F3923009F32D853E854F85C1
:1004800058898D899E89AF89B88D22243324210112
:10049000AA24BB246501EE24FF24870160E070E0FC
:1004A0000DC06F5F7F4F6032710599F1880F991F02
:1004B000AA1FBB1F569547953795279520FF19C052
:1004C000280E391E4A1E5B1E662477244301281617
:1004D00039064A065B0628F4E1E06E2E712C812C69
:1004E000912CAE0CBF1CC01ED11EA60CB71CC81C84
:1004F000D91CEE0CFF1C001F111FB7FFD2CFE1E08B
:100500006E2E712C812C912CE628F72808291929A8
:10051000C8CF8B859C852B893C89820F931F0296BF
:100520009C8F8B8F1A8E9A858A89981711F081E09B
:100530008A8FD7FE17C08B8D9C8DA0FE0CC0569461
:1005400047943794279420E030E040E050E8222A96
:10055000332A442A552AD694C794B794A79401966F
:100560009C8F8B8F30E0A31630E0B30630E0C306DB
:1005700030E4D30618F58B8D9C8D0EC0220C331CF5
:10058000441C551C019720E0A21620E0B20620E092
:10059000C20620E4D20680F4AA0CBB1CCC1CDD1CD5
:1005A00057FEECCF31E0632E712C812C912CA628C4
:1005B000B728C828D928E2CF9C8F8B8FD601C501D8
:1005C0008F779070A070B07080349105A105B1054F
:1005D00051F0AD8EBE8ECF8ED8A283E0898FBE0142
:1005E000675E7F4F1CC0A7FCF4CF21143104410487
:1005F000510479F380E490E0A0E0B0E0A80EB91EC9
:10060000CA1EDB1E80E8682E8FEF782E8FEF882EB3
:100610008FEF982EA620B720C820D920DACFCB01A3
:100620000E946105E2E1A0960C94B51BA8E1B0E040
:10063000ECE1F3E00C949F1B69837A838B839C83AA
:100640002D833E834F835887B9E08B2E912C8C0EDF
:100650009D1EB401CE0101960E9495068E010F5E8B
:100660001F4FB801CE0105960E94950629852230BC
:1006700008F46AC03989323008F468C08A859A89DA
:1006800089278A87243009F463C0223009F460C0C6
:10069000343041F41D861E861F86188A1C861B86F0
:1006A000B40177C0323009F458C06B857C858B89E2
:1006B0009C89681B790B7C876B872D853E854F85D0
:1006C0005889ED88FE880F89188D2E153F05400743
:1006D000510740F4220F331F441F551F61507040D3
:1006E0007C876B8780E090E0A0E0B0E4AA24BB2484
:1006F000650160E070E02E153F054007510740F0AE
:10070000A82AB92ACA2ADB2A2E193F09400B510B05
:10071000B695A79597958795220F331F441F551FB0
:100720006F5F7F4F6F31710531F7D601C5018F774C
:100730009070A070B07080349105A105B10589F06A
:10074000AD86BE86CF86D88AB40123C0B80121C049
:100750003217D1F768E770E01CC084E08987B401E4
:1007600018C0A7FCEDCF211531054105510541F316
:1007700080E490E0A0E0B0E0A80EB91ECA1EDB1E27
:1007800080E89FEFAFEFBFEFA822B922CA22DB2299
:10079000D7CFCB010E946105ECE068960C94BB1B9F
:1007A000A8E1B0E0E6EDF3E00C94A51B69837A8341
:1007B0008B839C832D833E834F83588789E0E82E6B
:1007C000F12CEC0EFD1EB701CE0101960E9495069C
:1007D0008E010F5E1F4FB801CE0105960E9495064F
:1007E0008985823018F08989823018F421E030E060
:1007F00008C0B801C7010E943407282F332727FDFE
:100800003095C901E6E068960C94C11BA8E1B0E000
:10081000ECE0F4E00C94A51B69837A838B839C83C2
:100820002D833E834F83588789E0E82EF12CEC0E10
:10083000FD1EB701CE0101960E9495068E010F5E46
:100840001F4FB801CE0105960E949506898582301A
:1008500018F42FEF3FEF0BC089898230D0F3B80135
:10086000C7010E943407282F332727FD3095C9017F
:10087000E6E068960C94C11BA8E1B0E0E2E4F4E085
:100880000C94A51B69837A838B839C832D833E8381
:100890004F83588789E0E82EF12CEC0EFD1EB7013E
:1008A000CE0101960E9495068E010F5E1F4FB80182
:1008B000CE0105960E9495068985823018F42FEFA7
:1008C0003FEF0BC089898230D0F3B801C7010E9485
:1008D0003407282F332727FD3095C901E6E06896B5
:1008E0000C94C11BA8E1B0E0E8E7F4E00C94A51B70
:1008F00069837A838B839C832D833E834F835887C0
:1009000089E0E82EF12CEC0EFD1EB701CE01019618
:100910000E9495068E010F5E1F4FB801CE0105960D
:100920000E9495068985823018F08989823018F4F2
:1009300021E030E008C0B801C7010E943407282F29
:10094000332727FD3095C901E6E068960C94C11B5A
:10095000A8E0B0E0EEEAF4E00C94A81B9B01AC0127
:1009600083E089831A8257FD51C021153105410565
:10097000510539F482E08983CE0101960E94610518
:100980004CC0EEE1F0E0FC83EB838A818823C9F15F
:10099000203010E0310710E0410710E85107C9F19D
:1009A00088279927DC01821B930BA40BB50B8D8341
:1009B0009E83AF83B8872D813E814F81588520303B
:1009C00080E0380780E0480780E45807A8F6EB810C
:1009D000FC81DA01C901880F991FAA1FBB1F31973B
:1009E0009C01AD01803010E0910710E0A10710E4F8
:1009F000B10778F3FC83EB838D839E83AF83B88745
:100A0000BBCF2D833E834F835887D5CF81E08A8328
:100A1000ACCF60E070E080E09FECE3E028960C94BF
:100A2000C41BACE0B0E0E7E1F5E00C94A91B6983DE
:100A30007A838B839C83BE016B5F7F4FCE010196CF
:100A40000E9495068D81823061F0823050F08430B2
:100A500069F48E81882359F52FEF3FEF4FEF5FE761
:100A60002AC020E030E040E050E025C02F813885EA
:100A700037FDF7CF2F31310564F78EE190E0821B0F
:100A8000930B29853A854B855C8504C0569547951F
:100A9000379527958A95D2F78E81882361F05095F6
:100AA0004095309521953F4F4F4F5F4F04C020E058
:100AB00030E040E050E8CA01B901E2E02C960C9425
:100AC000C51B4F925F926F927F928F929F92AF92CF
:100AD000BF92DF92EF92FF920F931F9320E030E0DE
:100AE00040E050E0FC01E480F58006811781D18070
:100AF0008081823038F4D801C701A061AF77B0702F
:100B00006FEFEFC0843009F474C0823009F477C00D
:100B1000E114F1040105110509F471C0828193818A
:100B20006FEF823896070CF070C062E87FEF681BA9
:100B3000790B6A3171050CF08FC047015801062E00
:100B400004C0B694A794979487940A94D2F7442447
:100B50005524320181E090E0A0E0B0E004C0880FAD
:100B6000991FAA1FBB1F6A95D2F70197A109B10966
:100B7000E822F9220A231B23E114F10401051105DF
:100B800029F0B1E04B2E512C612C712C85017401A0
:100B9000E428F52806291729D801C7018F77907016
:100BA000A070B07080349105A105B10509F466C04C
:100BB000D801C701CF96A11DB11D60E070E0803063
:100BC000E0E09E07E0E0AE07E0E4BE0710F061E081
:100BD00070E0FB01BC01CD01F7E096958795779514
:100BE0006795FA95D1F7DC01CB01AF77B0706E2F26
:100BF00078C080E090E0A0E0B0E06FEF72C080E0ED
:100C000090E0A0E0B0E060E06CC0803891058CF727
:100C1000BC0161587F4FD801C7018F779070A070D9
:100C2000B07080349105A105B105E9F08FE390E043
:100C3000A0E0B0E0E80EF91E0A1F1B1F17FD38C028
:100C4000D801C70127E0B695A795979587952A956E
:100C5000D1F7AF77B07045C0E0E0F0E060E070E061
:100C600080E090E0C0CFE7FEE9CF80E490E0A0E034
:100C7000B0E0E80EF91E0A1F1B1FE0CFE7FC1FC003
:100C800080E090E060E0E61660E0F60660E00607CF
:100C900060E4160710F081E090E0FC01C801B701A4
:100CA000A7E09695879577956795AA95D1F79BCFFD
:100CB00016950795F794E7946F5F7F4FC1CFD801E2
:100CC000C701805C9F4FAF4FBF4F60E070E0803046
:100CD000E0E09E07E0E0AE07E0E4BE0708F479CF6D
:100CE00076CF282F392F8A2F8F774078482B862F61
:100CF0008795882787954F77482B66955078562B90
:100D0000D794DD24D7945F775D29CA01B9011F917B
:100D10000F91FF90EF90DF90BF90AF909F908F90DA
:100D20007F906F905F904F900895FC01DB012081D0
:100D300031819281492F4F7750E0991F9927991F50
:100D40008381682F660F692B881F8827881FFD0104
:100D50008183662309F049C02115310541055105FC
:100D600009F470C082E89FEFFD0193838283220F14
:100D7000331F441F551F220F331F441F551F220FBF
:100D8000331F441F551F220F331F441F551F220FAF
:100D9000331F441F551F220F331F441F551F220F9F
:100DA000331F441F551F83E08C932030F0E03F0732
:100DB000F0E04F07F0E45F0790F482E89FEF220F26
:100DC000331F441F551F0197203060E0360760E055
:100DD000460760E4560798F3FD0193838283FD0183
:100DE000248335834683578308956F3F71F1862F9F
:100DF00099278F579040FD019383828383E08C93E2
:100E0000220F331F441F551F220F331F441F551F2E
:100E1000220F331F441F551F220F331F441F551F1E
:100E2000220F331F441F551F220F331F441F551F0E
:100E3000220F331F441F551F50642483358346837C
:100E40005783089582E08C9308952115310541055B
:100E5000510519F484E08C93089544FD02C01C925E
:100E6000BECF81E08C93BBCFEF92FF920F931F9385
:100E7000CF93DF93FC01DB018081823050F09C91A5
:100E8000923038F0843041F49430B1F0818188237D
:100E900081F461E070E04BC09430E9F18230A1F060
:100EA0009230A1F36181ED018981681791F0662389
:100EB00081F36FEF7FEF3BC0EB018981682F7727CC
:100EC0008181681B710933C0923059F560E070E090
:100ED0002EC022813381ED018A819B818217930785
:100EE00034F3281739079CF0E480F58006811781D8
:100EF000FD0124813581468157812E153F0540072C
:100F00005107A8F2E216F30604071507F8F6662360
:100F100009F0BFCFCECFFB018181882309F0B9CF83
:100F2000C8CFEB018981882309F0B3CFC2CFCB01B1
:100F3000E6E0CDB7DEB70C94C11BCFE5D8E0DEBF4D
:100F4000CDBF0E94CC190E94E5140E94E21A0E94B3
:100F50002B140E9409090E948D090E945A08FFCF94
:100F600080E090E00895DC01BF77062E0E94DD1B33
:100F70000895CF93DF93CDB7DEB724970FB6F894DB
:100F8000DEBF0FBECDBFFE013196DC01BF7784E02E
:100F9000182E0E94D81B69817A818B819C812496AE
:100FA0000FB6F894DEBF0FBECDBFDF91CF9108958D
:100FB000CF93DF93CDB7DEB722970FB6F894DEBF9D
:100FC0000FBECDBFFE013196DC01BF7782E0182E47
:100FD0000E94D81B89819A8122960FB6F894DEBFB1
:100FE0000FBECDBFDF91CF910895EF92FF920F9387
:100FF0001F938C0190E0E92E90E0F92EC70108962E
:101000000E94D807E80EF91E000F111FC701800FBC
:10101000911F0E94D8078E0D9F1D1F910F91FF9069
:10102000EF900895EF92FF920F931F938C0130E0A1
:10103000E32E30E0F32EC7010A960E94D80723E082
:10104000000F111F2A95E1F7080F191FC8018E0D17
:101050009F1D1F910F91FF90EF900895CF93DF9305
:10106000CDB7DEB721970FB6F894DEBF0FBECDBF68
:10107000DC01BF7781E0FE013196182E0E94D81B5B
:101080008981992721960FB6F894DEBF0FBECDBF98
:10109000DF91CF9108958CE090E00E942E0899276F
:1010A00008959927880F991F825F9F4F0E942E08ED
:1010B00099270895EF92FF921F93CF93DF93EE2429
:1010C000FF2410C0C12FDD27CE010E941208049614
:1010D0000E942E0880FF03C0CE010E949A09089446
:1010E000E11CF11C1E2D85E090E00E942E08E81600
:1010F00048F386E090E00E94D8070E949A09DF91A9
:10110000CF911F91FF90EF900895CF93DF93DB0174
:10111000BF77EA01FC01219724F00E94D01B0192C5
:10112000FACFDF91CF910895CF92DF92EF92FF92A5
:101130000F931F93CF93DF93CDB7DEB728970FB6EA
:10114000F894DEBF0FBECDBFC82ED62EEE24FF24EE
:1011500020C0012F1127C8010E94120848E050E06A
:10116000BC01CE0101960E9485084B815C81252F30
:1011700033278C2D99272817390741F450708D2D6E
:1011800099274817590711F4C8010CC00894E11CAD
:10119000F11C1E2D85E090E00E942E08E816C8F292
:1011A0008FEF90E028960FB6F894DEBF0FBECDBF4C
:1011B000DF91CF911F910F91FF90EF90DF90CF9033
:1011C00008950F931F93182F062F602F812F0E94D1
:1011D00094088F3F51F4812F9927880F991F835FBF
:1011E0009F4F0E942E08182FF0CF99271F910F9123
:1011F0000895CF93DF93EA01DC01A050B040FB01DA
:10120000219724F001900E94DD1BFACFDF91CF914E
:10121000089580E090E00E94B9076E5F7F4A8541A3
:101220009E4B31F089E00E94151480E090E0089513
:1012300084E090E00E942E08813019F481E090E073
:1012400008958AE00E94151480E090E0089596FDCC
:101250009068089597FF02C0906401C09F7B9F77BC
:10126000089596FD906895FF02C09F7B0895906455
:1012700008950F931F93CF93DF93EC01892F992744
:1012800080319105F8F40E9451089927880F991F21
:10129000880F991F0496BC0181E00E9496128C0170
:1012A000B8018827992790680E948318C8010E9476
:1012B000F110FC01CE01AA27BB2780839183A28372
:1012C000B38303C0CE010E94B912DF91CF911F9169
:1012D0000F910895EF92FF920F931F937B018C0162
:1012E00097FD03C08BE00E941514D801C7018070E0
:1012F0009070A070B07C80509040A040B04821F425
:10130000C7010E94F11004C0C7010E94F507906850
:101310001F910F91FF90EF9008950E9437100E9447
:101320004B080E949F1960E070E080E090E00E940E
:10133000831808952F923F925F926F927F928F92BF
:101340009F92AF92BF92CF92DF92EF92FF920F9354
:101350001F93CF93DF93CDB7DEB760970FB6F894A6
:10136000DEBF0FBECDBF1B861C861D861E86988BDA
:101370008F870E9412089A87898748E050E0BC0155
:10138000CE0101960E94850829803A8029853A85F8
:10139000220E331E8F812885820F912D911D2E8163
:1013A000820F911D880F991F880F991F0E94D811D5
:1013B0000E94C718049690938D0080938C008F81B3
:1013C0000E94B5180E94C319662477244301C10105
:1013D0000E942E08582EC10101960E942E088C876B
:1013E000C10102960E942E088B87552009F462C520
:1013F00030E1531641F44C85642F772767FD7095D3
:10140000872F972F08C551E1551649F4AB85BC8548
:10141000BD01882777FD8095982F9F77CEC3852DB6
:101420008250873048F4652D7727635070408827B5
:1014300077FD8095982FF2C1B6E35B1631F4EC8509
:101440000E2F112707FD1095A3C4852D8B538430D3
:10145000B0F4052D1127000F111F000F111F8091EF
:101460008C0090918D00080F191F0C5E10400E9497
:101470009218F8016083718382839383E5C1F5E15B
:101480005F1609F4B5C4852D8A51843098F4E52D92
:10149000FF27EE0FFF1FEE0FFF1F80918C00909132
:1014A0008D00E80FF91FE856F0406081718182815C
:1014B0009381B4C1852D89598C3008F074C0863071
:1014C00030F436E0530EEE24FF24870104C00E945E
:1014D0008F197B018C010E948F193B014C0141EA5D
:1014E000541641F1451540F05FE9551679F060EA70
:1014F000561609F04CC014C083EA581679F15816F4
:1015000018F194EA591609F042C032C080E090E028
:10151000A0E0B0E06E147F0480069106B1F531C002
:1015200080E090E0A0E0B0E06E147F0480069106B9
:1015300061F127C080E090E0A0E0B0E06E147F048D
:101540008006910614F51DC080E090E0A0E0B0E0B8
:101550006E147F0480069106C4F013C080E090E012
:10156000A0E0B0E0E614F7040805190574F409C01A
:1015700080E090E0A0E0B0E0E614F704080519056B
:1015800024F081E090E0A0E0B0E03C014D01611466
:1015900071048104910409F48FC4AB85BC852A0EC3
:1015A0003B1E80E08AC4B7EA5B1649F4EB85FC85F4
:1015B0002E0E3F1E2DEF3FEF220E331E89C4852DC8
:1015C0008056853208F02DC134E7531651F40E943D
:1015D0008F19662477244301661A770A880A990AC4
:1015E00060C444E8541631F55C85E52FFF27E7FD1C
:1015F000F095EE0FFF1FEE0FFF1F80918C00909172
:101600008D00E80FF91F208131814281538156FD01
:1016100050686B85862F992787FD9095A92FB92F44
:10162000280F391F4A1F5B1F5F7720833183428356
:1016300053834EC4852D8370823009F058C086E7ED
:10164000851508F454C0581621F40E944119905889
:101650004BC00E9441195B016C010E9441197B0142
:101660008C019AE65916F1F0951538F0A2E65A1653
:1016700059F0B6E65B16B1F50EC0EEE65E16C9F09F
:10168000F0E75F1679F52BC0A6019501C801B701F7
:101690000E94CB0121C0A6019501C801B7010E949B
:1016A0009A011AC0A6019501C801B7010E94F8016C
:1016B00013C020E030E040E050E0C601B5010E94D8
:1016C000D003882319F48DE00E941514A60195011A
:1016D000C801B7010E9416037B018C0103C08CE096
:1016E0000E941514C801B7010E942A09DDC30E9497
:1016F0008F193B014C010E948F197B018C0128E757
:10170000521609F458C02515A8F038E65316A1F171
:10171000351540F040E6541629F154E6551609F007
:1017200073C025C06CE6561661F180E7581609F0C3
:101730006BC038C09EE7591609F44FC0951548F0A4
:10174000AAE75A1609F440C0BCE75B1609F05CC072
:1017500053C0E0E85E1609F445C0F2E85F1609F0F0
:1017600053C045C0E60CF71C081D191D4DC0E618F6
:10177000F7080809190948C0A40193010E94291B10
:1017800017C0611471048104910419F48DE00E9462
:101790001514C801B701A40193010E945C1B7901D3
:1017A0008A0132C0C801B701A40193010E945C1BE9
:1017B0007B018C0129C0062C04C0EE0CFF1C001F0D
:1017C000111F0A94D2F720C0062C04C01595079566
:1017D000F794E7940A94D2F717C0E620F72008217F
:1017E000192112C0E628F728082919290DC0E62476
:1017F000F7240825192508C0062C04C0169507955E
:10180000F794E7940A94D2F72FEF3FEF4FEF5FE79B
:10181000E222F32204231523C801B7010E94831892
:1018200013C03CEA531641F04EEA541629F051EB2E
:10183000551609F050C004C00E9492183B014C019B
:101840000E94EA18882311F081E037C3BF80088521
:101850000B0D0D5F8E81080F0E9492186B017C01A9
:101860000E949218DC01CB01988B8F870E9412088E
:101870009A87898748E050E0BC01CE0101960E941A
:1018800085080E94921829843A84260E371E8B2DD3
:1018900081950E94B5180E94C718CC0CDD1CCC0C99
:1018A000DD1C8C199D0990938D0080938C0011276D
:1018B000C801880F991F880F991F0E94A8106CEA11
:1018C000561621F08EEA581609F001C3C401B3017F
:1018D0000E948318FCC298E5591619F40E949218C8
:1018E00003C0A7E55A1619F40E949218E3C2B9E59D
:1018F0005B1611F480E009C0ECE55E1649F481E066
:101900000E94A0180E94831881E00E94A018CCC2F7
:10191000FAEA5F1609F07EC02C85C22EDD24810113
:101920000C0D1D1DC80107960E942E08E82EC80147
:1019300008960E942E08FF24FE2CEE249927E82A00
:10194000F92A3701882477FC8094982CC8010B96DB
:101950000E942E08F82EC8010C960E942E08182FFF
:101960000E9492186B877C878D879E876615770506
:1019700088059905ACF08F2D9927982F8827212F5E
:101980003327822B932BAA2797FDA095BA2F2B855F
:101990003C854D855E8582179307A407B50754F4EF
:1019A00043E050E0C40ED51E9601442737FD409514
:1019B000542F1CC08FE090E0C80ED91E960144271A
:1019C00037FD4095542F8B859C85AD85BE85861946
:1019D0009709A809B90912E0880F991FAA1FBB1F10
:1019E0001A95D1F7280F391F4A1F5B1F8101020F7B
:1019F000131FC8010E942E08E82EC80101960E94FC
:101A00002E08FF24FE2CEE249927E82AF92A2E0C12
:101A10003F1CB7C092EB591629F48B859C850E9418
:101A2000CC18CBC0A3EB5A1649F40E949218AB0114
:101A3000BC018B859C850E94DB184AC2B2E15B1613
:101A400049F4EC856E2F772767FD7095872F972FC8
:101A5000906CE1C1852D865B833008F099C0FC85D0
:101A6000F0310CF090C029853A85221A330A3101F1
:101A7000882477FC8094982C8B859C850E94120882
:101A80009A87898748E050E0BC018E010F5F1F4FA5
:101A9000C8010E94850836EB531661F580E00E946C
:101AA000A018DC01CB010E94F110FC018081918122
:101AB000A281B381292F3A2F4B2F55276B817C812F
:101AC000872F9927AA27BB27281739074A075B07BB
:101AD00089F0822F0E94E1088B87992787FD9095D6
:101AE0000E9412089A87898748E050E0BC01C8012B
:101AF0000E9485088E8181950E94B5180E94C718A2
:101B000020918C0030918D007C01E21AF30AF5944B
:101B1000E794F594E7940027F7FC0095102F0E94B6
:101B2000C718049690938D0080938C008F81288530
:101B3000820F912D911D2E81820F911D880F991F6B
:101B4000880F991F0C960E94D8118F810E94B5189A
:101B5000C401B3010E9483184F855889BA018827B0
:101B600099270E948318C801B7010E9483188B85AA
:101B70009C85988B8F8729803A80A985BA852A0E03
:101B80003B1E80E09DC18B859C850E94D712A0C121
:101B9000B4EB5B16A9F40E949218DC01CB010E9401
:101BA000F110EB85FC85EE0FFF1FEE0FFF1FE80F16
:101BB000F91F64817581868197810E94831888C18D
:101BC000E5EB5E16B9F40E9492183B014C010E94AD
:101BD0009218DC01CB010E94F110EB85FC85EE0F21
:101BE000FF1FEE0FFF1FE80FF91F648275828682C8
:101BF00097826EC1FBEB5F1629F48B859C850E9452
:101C0000390966C12CEB521659F40E9492184C8582
:101C10000E94F113AA27BB27B068BC01CD01FBC00D
:101C20003EEB531639F40E949218DC01CB010E945E
:101C3000D6133AC144E5541691F40E948F197B01E2
:101C40008C010E948F193B014C010E949218DC010B
:101C5000CB012E2DB401A3010E94A9132BC15FE477
:101C6000551699F40E948F197B018C010E948F19DF
:101C70003B014C010E949218DC01CB0198018701C5
:101C8000B401A3010E946F1315C163E35616A1F4BA
:101C90000E948F193B014C010E949218DC01CB017C
:101CA000B401A3010E949513992787FD9095A92F50
:101CB000B92FBC01CD01F8C08EE2581669F40E941C
:101CC0008F193B014C010E949218DC01CB01B40139
:101CD000A3010E945713E8C090E3591679F40E94BB
:101CE0008F193B014C010E949218DC01CB01B40119
:101CF000A3010E9419130E944700D6C0A1E55A16FD
:101D000099F40E9441197B018C010E948F193B01BB
:101D10004C010E949218DC01CB0198018701B401AB
:101D2000A3010E943113C6C0BBE05B1629F460E03A
:101D300070E080E090E0D8CCECE05E1629F460E042
:101D400070E080E89FE3D0CCFDE05F1629F460E00E
:101D500070E080E090E4C8CC26E8521639F40E9486
:101D60008F193B014C010E94A804BECC3BE85316DE
:101D700039F40E9441190E9411053B014C0191C0A8
:101D800048E35416C1F45C85052F112707FD109513
:101D9000000F111F000F111F80918C0090918D007A
:101DA000080F191F0E949218D8016D937D938D938F
:101DB0009C93139732C0852D83548430B0F4052D45
:101DC0001127000F111F000F111F80918C0090919F
:101DD0008D00080F191F0C5011400E949218F80135
:101DE000608371838283938365C0F7E15F16B9F4E2
:101DF0002C85E22FFF27E7FDF095EE0FFF1FEE0F7A
:101E0000FF1F80918C0090918D00E80FF91F608179
:101E10007181828193810E94831882E051C0852D57
:101E20008252843098F4E52DFF27EE0FFF1FEE0F4E
:101E3000FF1F80918C0090918D00E80FF91FE858EA
:101E4000F04060817181828193812EC0852D8559FA
:101E5000823068F50E9441197B018C010E94411972
:101E60005B016C01A80197010E94720488234CF465
:101E70006FEF662E6FEF762E6FEF862E6FEF962E3A
:101E800010C0662477244301A8019701C601B5015B
:101E90000E94060418162CF451E0652E712C812C3A
:101EA000912CC401B3019F770E94831803C08CE07A
:101EB0000E94151481E004C083E03CEA531651F0FF
:101EC000280E311C41EB541609F081CA03C0552479
:101ED00083E0F6CF8F8181950E94B5188F81288588
:101EE000820F912D911D2E81820F911D880F991FB8
:101EF000880F991F0E94A81060960FB6F894DEBF55
:101F00000FBECDBFDF91CF911F910F91FF90EF904A
:101F1000DF90CF90BF90AF909F908F907F906F9009
:101F20005F903F902F9008958EE890E00895FB0118
:101F3000DC01A40FB51FE40FF51F02C082918E9340
:101F4000415050408FEF4F3F5807C1F70895DC01D3
:101F5000609180007091810016C0FB01E257FF4F35
:101F6000808191818A179B07A1F022812695438168
:101F7000342F379533273795832F822B942F9695BF
:101F80000496680F791F87E06030780730F3E0E04F
:101F9000F0E0CF010895CF93DF93C1E0D0E0CE0110
:101FA0000E94A70F892B11F02196C9F7CE01DF916E
:101FB000CF910895CF92DF92FF920F931F93CF930B
:101FC000DF938C01F62EBA016C5F7F4FC0908000CA
:101FD000D0908100D601A257BF4FED013A81232F47
:101FE00026959B81892F879588278795E82FE22B57
:101FF000F92FF695E617F70718F480E090E02FC068
:10200000CF01861B970B282F220F3170322BFD0139
:102010003283292F220F881F8827881F822B8383D2
:102020003695282F279522272795E22FE32BF82F87
:10203000F695EC0DFD1DEE56FF4F11830083942F96
:10204000990F8F2D8170892B8283952F990F842F63
:10205000881F8827881F892B838381E090E0DF9188
:10206000CF911F910F91FF90DF90CF900895109224
:102070008F0010928E00809190008170886F809305
:1020800090008DE0809391000895EF92FF920F935E
:102090001F93CF93DF937C010027112780E090E00E
:1020A000A0E0B0E8E82AF92A0A2B1B2B60918000F7
:1020B000709181003FC0EB01C257DF4F4A8140FF62
:1020C0002BC046953B81232F279522272795822FCA
:1020D000842B932F9695AC01569547955695479529
:1020E00020E030E014C02F5F3F4FEE0FFF1FEE0FD8
:1020F000FF1FEC0FFD1F84819581A681B7818E158E
:102100009F05A007B10719F481E090E01AC0E22F03
:10211000FF27E417F50738F32A8126954B81342FE2
:10212000379533273795832F822B942F96950496D6
:10213000680F791F97E06030790708F4BCCF80E022
:1021400090E0DF91CF911F910F91FF90EF90089554
:102150000F931F93CF93DF938C01C0918000D09198
:102160008100C257DF4F88819981892B19F081E066
:102170000E94151480918000909181008017910732
:1021800018F485E00E9415148A8186954B81942F5E
:10219000979599279795292F282B342F3695E091DD
:1021A0008000F0918100E01BF10BF0938100E0933F
:1021B0008000E257FF4F11821082200F311F922FB3
:1021C000990F82818170892B8283832F880F221F30
:1021D0002227221F282B2383DF91CF911F910F915C
:1021E0000895CF93DF930E94A70FEC01892B19F478
:1021F00083E00E941514CE010496DF91CF910895DB
:10220000CF93DF930E94A70FEC01892B19F483E091
:102210000E9415142A8126954B81342F3795332738
:102220003795832F822B942F9695DF91CF91089528
:102230000F931F93CF93DF93009180001091810043
:102240003DC0E801C257DF4F88819981892B89F011
:102250002A8126954B81342F379533273795832F45
:10226000822B942F96958150974018F080E00E9421
:1022700015148A8186954B81942F97959927979568
:10228000292F282B342F36952C5F3F4F80E097E085
:10229000801B910B8217930718F481E00E9415149C
:1022A0002A8126954B81342F379533273795832FF5
:1022B000822B942F96950496080F191F87E0003003
:1022C000180708F4BECFDF91CF911F910F910895A9
:1022D000EF92FF920F931F93CF93DF9300918000B3
:1022E0001091810053C0E801C257DF4F2A81269523
:1022F0004B81342F379533273795832F822B942F9B
:10230000969524E0E22EF12CE80EF91E8881998141
:102310000097D1F10E94FB188823B1F5888199813B
:102320000E944510882381F56091800070918100A2
:10233000A801461B570BCB018E0D9F1D62577F4F87
:1023400082579F4F0E94970FE0918000F09181008B
:10235000E257FF4F3281532F56954381242F279503
:1023600022272795822F852B942F96958E0D9F1DC2
:10237000282F220F3170322B3283292F220F881FF2
:102380008827881F822B83830E0D1F1D87E0003056
:10239000180708F4A8CF0050174019F081E00E94F8
:1023A0001514DF91CF911F910F91FF90EF90089539
:1023B000CF92DF92EF92FF920F931F93CF93DF9311
:1023C0007C01009180001091810002571F4FF8019D
:1023D00080819181892B19F081E00E941514F80108
:1023E000828186952381922F979599279795C82E5C
:1023F000C92AE6016E012695D22EE601CE14DF042D
:10240000B8F40E946811F801828186952381922F89
:10241000979599279795C82EC92AE6016E012695AA
:10242000D22EE601CE14DF0418F484E00E941514C5
:10243000E0918000F0918100EE0DFF1DF09381008E
:10244000E0938000E257FF4F11821082CE018E1977
:102450009F09382F330F22812170232B2283292FAC
:10246000220F881F8827881F822B8383DF91CF91BB
:102470001F910F91FF90EF90DF90CF900895EF9212
:10248000FF920F931F93CF93DF938C017B01E09119
:102490008000F0918100E257FF4F82818695438151
:1024A000942F979599279795292F282B342F369578
:1024B000CB0104962817390710F00E946811C80153
:1024C0000E94A70FEC016A816170A701C8010E94F8
:1024D000DA0F882319F482E00E941514C8010E94C3
:1024E000A70F4A8146956B81562F579555275795CB
:1024F000252F242B362F3695AE01DC012C0F3D1FE6
:1025000006C0FA018481FD0183834F5F5F4F1196FE
:1025100042175307B1F78FEF90E099838883DF91DB
:10252000CF911F910F91FF90EF900895FF920F931D
:102530001F93CF93DF93F82E8B010E94CB0FEC01FA
:10254000A8016F2D0E94DA0F882361F40E946811A0
:10255000A8016F2DCE010E94DA0F882319F482E0C2
:102560000E941514CE01DF91CF911F910F91FF9022
:102570000895892F9927449769F461E070E080E01D
:102580000E949612AA27BB27B068BC01CD010E9409
:102590008318089588E00E9415140895882319F47B
:1025A0000E949218089587E00E9415140895292F1B
:1025B00033272031310519F40E94CE1208952231BB
:1025C000310519F40E94291808952331310519F4B1
:1025D0000E94E81708952431310519F40E9412175A
:1025E00008952531310519F40E9400160895263109
:1025F000310519F40E941D1508952731310519F48C
:102600000E94C61508952A31310519F40E948315D8
:1026100008952931310519F40E94EF1408952B31E2
:10262000310519F40E947E1A089588E00E9415145D
:102630000895EF92FF920F931F937A018B010E94EE
:10264000F110EE0CFF1CEE0CFF1CE80EF91EF7015A
:1026500061817281838194811F910F91FF90EF902E
:1026600008958F929F92AF92BF92CF92DF92EF9296
:10267000FF920F931F936A017B01480159010E9449
:10268000F110CC0CDD1CCC0CDD1CC80ED91EF601E3
:1026900081829282A382B4821F910F91FF90EF906A
:1026A000DF90CF90BF90AF909F908F900895EF9262
:1026B000FF920F931F937A018B010E94F110EE0C91
:1026C000FF1CEE0CFF1CE80EF91EF7016181728100
:1026D000838194811F910F91FF90EF9008958F92C5
:1026E0009F92AF92BF92CF92DF92EF92FF920F93A1
:1026F0001F936A017B01480159010E94F110CC0C23
:10270000DD1CCC0CDD1CC80ED91EF6018182928224
:10271000A382B4821F910F91FF90EF90DF90CF9032
:10272000BF90AF909F908F900895EF92FF920F937C
:102730001F937A018B010E94F110FC01EE0DFF1D29
:102740008181992787FD90951F910F91FF90EF90C0
:102750000895DF92EF92FF920F931F937A018B01FE
:10276000D22E0E94F110FC01EE0DFF1DD1821F91AF
:102770000F91FF90EF90DF900895982F8450823052
:1027800090F0983081F0993019F482E090E008954B
:102790009A3019F484E090E0089586E00E941514C0
:1027A00080E090E0089581E090E00895EF92FF923C
:1027B0000F931F938C010E9400117C01C8010E949D
:1027C000F110FC0180810E94BD13682F7727C7019B
:1027D0000E94481B882799271F910F91FF90EF9027
:1027E0000895DF92EF92FF920F931F937B018C016C
:1027F000D42E842F0E94BD13282F3327442755271A
:10280000C801B7010E94291B6F5F7F4F80E00E94C3
:1028100096128C010E94F110FC01D082C8011F9118
:102820000F91FF90EF90DF9008951F93182F85E48C
:102830000E94121A82E50E94121A82E50E94121A60
:102840008AE30E94121A812F8F5B0E94121A8AE07B
:102850000E94121AFFCFAF92BF92DF92EF92FF92C7
:102860000F931F93CF93DF93CDB7DEB764970FB667
:10287000F894DEBF0FBECDBF0E94B0077C0185E19A
:102880000E94011A10E00BC080E090E00000019669
:1028900023E2863B9207D1F71F5F1A3F21F00E9487
:1028A000F819882389F30E94F819882309F456C07F
:1028B000570111E064E1CE0101960E94FB1A8431B8
:1028C000D1F540E0FE0134969E012C5E3F4F819190
:1028D000480FE217F307D9F789818130A9F5DA802B
:1028E000D11691F52B8133278D2D809599272817A7
:1028F000390751F58C89841739F5C5018E010C5FB4
:102900001F4F7C010894E11CF11CF80161918F01BB
:102910000E94B307CE0144960817190711F0C701AA
:10292000F0CF80E190E0A80EB91E86E00E94011A67
:102930001D2D1F5F0CC0882321F486E00E94011A20
:10294000B9CF89818A3139F085E10E94011A8981E4
:102950008A3109F0AFCF86E00E94011A64960FB663
:10296000F894DEBF0FBECDBFDF91CF911F910F91C5
:10297000FF90EF90DF90BF90AF9008951F920F925D
:102980000FB60F9211248F939F93AF93BF931DBCEB
:102990001CBC8091820090918300A0918400B09132
:1029A00085000196A11DB11D809382009093830044
:1029B000A0938400B0938500BF91AF919F918F91B8
:1029C0000F900FBE0F901F90189582E08EBD80E291
:1029D0009EE49BBD8ABD89B7806189BF0895EF924F
:1029E000FF920F931F93813079F40E9492187B011C
:1029F0008C010E9492186130D9F485B5887F9E2D94
:102A00009770892B85BD14C0823079F40E9492188A
:102A10007B018C010E949218613051F485B587705A
:102A2000886685BD8F9AE3BC03C087E00E941514B9
:102A30001F910F91FF90EF900895EF92FF920F93E7
:102A40001F93813071F40E9492187B018C010E94C7
:102A50009218DC01CB019927880F991F88599F4F45
:102A60003CC08230D9F40E9492187B018C010E94F4
:102A70009218DC01CB019927880F991F88599F4F25
:102A8000DC01ED91FC91208181E090E002C0880F93
:102A9000991FEA94E2F7282B208330C0833071F429
:102AA0000E9492187B018C010E949218DC01CB01DC
:102AB0009927880F991F805A9F4FE2CF8430D9F40D
:102AC0000E9492187B018C010E949218DC01CB01BC
:102AD0009927880F991F805A9F4FDC01ED91FC9137
:102AE000208181E090E002C0880F991FEA94E2F70C
:102AF00080952823D1CF87E00E9415141F910F9154
:102B0000FF90EF9008951F93813031F40E948F1948
:102B10006770606866B938C0823029F40E948F19E6
:102B2000607C67B931C08330B9F417B10E948F1946
:102B3000107C6F70162B17B9369A349BFECF349ADF
:102B400024B165B17727762F6627620F711D88271C
:102B500077FD8095982F12C0843099F417B10E94A8
:102B60008F196F70107C1062612B67B9369A349B95
:102B7000FECF349A65B17727882799270E9483185A
:102B800003C087E00E9415141F910895813029F435
:102B90000E948F197BBD6ABD0895823059F46091FF
:102BA00082007091830080918400909185000E9442
:102BB000831808958330D1F40E948F199B01AC01D2
:102BC000109282001092830010928400109285006F
:102BD0008091820090918300A0918400B091850043
:102BE00082179307A407B50754F4F2CF843021F479
:102BF0000E948F196EBD089587E00E9415140895F4
:102C0000813039F460E87EE380E090E00E94831830
:102C1000089587E00E94151408953F924F925F92A5
:102C20006F927F928F929F92AF92BF92CF92DF92DC
:102C3000EF92FF920F931F93CF93DF93EC017A01F2
:102C40008B0177FD0BC0612C9AEC792E9AE9892EC5
:102C50009BE3992E33244424552415C08DE2899397
:102C600010950095F094E094E11CF11C011D111DDC
:102C7000EACFC801B701A40193010E945C1B7B014C
:102C80008C0135014601C801B701A40193010E94DE
:102C90005C1B211531054105510519F081E0382EE5
:102CA00008C0332031F481E0681671048104910476
:102CB00019F4822F805D8993C401B3012AE030E0CA
:102CC00040E050E00E945C1B59016A010894411CDD
:102CD000511C8AE04816510461F61882DF91CF91A9
:102CE0001F910F91FF90EF90DF90CF90BF90AF902A
:102CF0009F908F907F906F905F904F903F9008953E
:102D0000AF92BF92CF92DF92EF92FF920F931F93F9
:102D1000CF93DF93EC015A016B01CB01BA010E9402
:102D200011057B018C01AB01BC01CE010E940D1687
:102D300001C0219688818823E1F761E070E080E09E
:102D400090E06E197F09800B910B0E94A8049B01F3
:102D5000AC01C601B5010E94CB0120E034E244E79A
:102D600059E40E94F8010E941105AB01BC01CE019B
:102D70000E940D168EE2888321968881882311F0A7
:102D8000FBCF18828A918033E1F38E3209F41882E6
:102D9000DF91CF911F910F91FF90EF90DF90CF9037
:102DA000BF90AF9008950F931F93CF93DF93FC01D3
:102DB00097FD03C000E010E010C000E010E003C089
:102DC0000F5F1F4FFE01EF012196CF010E942E08D9
:102DD0008823B1F705C00F5F1F4F81918823D9F772
:102DE000C801DF91CF911F910F9108950F931F9309
:102DF000CF93DF93EC01FB0177FF0BC08F010F5FD7
:102E00001F4FCF010E942E088993882331F0F801CB
:102E1000F5CF819189938823E1F7DF91CF911F91BD
:102E20000F910895AF92BF92CF92DF92EF92FF92EF
:102E30000F931F93CF93DF93CDB7DEB725970FB6D0
:102E4000F894DEBF0FBECDBF982F882329F40E94CF
:102E50006819FC011082ABC0813019F580E00E9436
:102E600051190E94D3168C0181E00E94A018DC0148
:102E7000CB010F5F1F4FB8010E943F1280E00E94FC
:102E800051198C0181E00E94A018DC01CB010E9445
:102E9000F110B8010E94F6160E9492180E94921832
:102EA00086C08250833020F0963009F060C02DC07B
:102EB0009230E9F480E00E9451190E94D3168C01EF
:102EC00081E00E9451190E94D3160F5F1F4F080F17
:102ED000191FB80180E00E9496126C0181E00E94E7
:102EE00051195C0180E00E9451197C0123C093308C
:102EF00051F480E00E947819AB01BC01CE0101962B
:102F00000E940D1611C0963051F480E00E942A19DB
:102F1000AB01BC01CE0101960E94801605C080E085
:102F20000E94A01869831A82FE013196808188234D
:102F3000E1F723C0C6010E94F1108C01B5010E9487
:102F4000F61602C00F5F1F4FF80180818823D1F76A
:102F5000B701C8010E94F6160E9492180E949218AA
:102F6000B6018827992790680E94831820C0953061
:102F7000F1F087E00E9415141AC07E010894E11C4C
:102F8000F11C8F010E191F0981E00E9451190E9446
:102F9000D3160F5F1F4F080F191FB80180E00E9462
:102FA00096126C0181E00E9451195C01C3CF2596F5
:102FB0000FB6F894DEBF0FBECDBFDF91CF911F914A
:102FC0000F91FF90EF90DF90CF90BF90AF9008955A
:102FD0001F93182F0E949218113019F40E94F819AB
:102FE00004C0123051F40E94051A9927AA27BB2762
:102FF000BC01CD010E94831803C087E00E94151414
:103000001F910895FF920F931F93CF93DF93EC01CD
:10301000F62E97FF10C003C00E94121AE8018E011D
:103020000F5F1F4FCE010E942E088823A9F706C00C
:1030300021960E94121A88818823D1F7FF2019F067
:103040008AE00E94121ADF91CF911F910F91FF9099
:1030500008950F931F93CF93DF93CDB7DEB72897D3
:103060000FB6F894DEBF0FBECDBF813021F40E94B1
:10307000681961E00EC0823079F40E948F19AB01AB
:10308000BC018E010F5F1F4FC8010E940D1661E049
:10309000C8010E9402182AC0843021F40E946819D5
:1030A00060E0F7CF853061F40E948F19AB01BC015D
:1030B0008E010F5F1F4FC8010E940D1660E0E8CF20
:1030C000833041F40E948F19DC01CB010E94121A57
:1030D0008AE006C0863039F40E948F19DC01CB01EA
:1030E0000E94121A03C087E00E9415140E949218D1
:1030F00028960FB6F894DEBF0FBECDBFDF91CF91FB
:103100001F910F910895E0918800F0918900349605
:10311000F0938900E09388003497648375838683F5
:1031200097830895E0918800F09189006081718112
:10313000828193813497F0938900E0938800089509
:1031400099272CEF3FEF829FF001839FF00D929F14
:10315000F00D11248091880090918900E80FF91FEB
:1031600060817181828193810895992787FD90956F
:10317000880F991F880F991F20918800309189002E
:10318000280F391F3093890020938800089580917B
:103190008800909189000895880F991F880F991FC2
:1031A000E0918600F0918700E80FF91F608171813E
:1031B000828193810895880F991F880F991FE0914C
:1031C0008600F0918700E80FF91F408351836283E6
:1031D0007383089540E050E0209188003091890089
:1031E00080918A0090918B002817390711F441E0F3
:1031F00050E0CA010895CF93DF93AC01662777278B
:1032000070688091860090918700209188003091AD
:103210008900281B390B35952795359527952F5F04
:103220003F4FEC01E0E0F0E00DC089919991A99148
:10323000B99184179507A607B70719F481E090E0C4
:1032400006C03196E217F30781F780E090E0DF9146
:10325000CF91089599272CEF3FEF829FF001839F34
:10326000F00D929FF00D11248091880090918900BB
:10327000E80FF91F60817181828193810E94310979
:103280000895E0918800F0918900608171818281C8
:1032900093813497F0938900E09388000E9431096C
:1032A000089599272CEF3FEF829FF001839FF00D47
:1032B000929FF00D11248091880090918900E80F71
:1032C000F91F60817181828193810E946A0908954A
:1032D000E0918800F0918900608171818281938101
:1032E0003497F0938900E09388000E946A0908955A
:1032F00099272CEF3FEF829FF001839FF00D929F63
:10330000F00D11248091880090918900E80FF91F39
:1033100060817181828193810E9427090895E091E3
:103320008800F09189006081718182819381349756
:10333000F0938900E09388000E94270908950F9375
:103340001F93082F0E94940F90938700809386000C
:10335000049790938900809388001127000F111F14
:10336000000F111FC80104960E94D8118091880097
:1033700090918900800F911F90938900809388001D
:103380001F910F91089580918800909189009093EA
:103390008B0080938A00089510928E071092AF07D9
:1033A00010BC87E689B91BB888E98AB986E880BD70
:1033B000789408951F920F920FB60F9211248F9355
:1033C0009F93EF93FF9380918E079CB1EFE8F7E016
:1033D000E80FF11D90838F5F8F7180938E07FF91AF
:1033E000EF919F918F910F900FBE0F901F901895A6
:1033F00080918E072091AF07821B99278F71907063
:1034000008955D9BFECF8CB908959091AF07EFE8CA
:10341000F7E0E90FF11D80819F5F9F719093AF07E7
:1034200099270895982F8A3021F45D9BFECF8DE077
:103430008CB95D9BFECF9CB90895C39A80E090E063
:103440000000019686319105D9F70895C39880E070
:1034500090E00000019686319105D9F70895C19852
:1034600014BA8FEF85BBC29A02C00E94261A0E942E
:103470001D1A9F99FACF0E94261A08951F93C29889
:103480001FEF14BB85BB0E941D1A0E94261A14BA96
:1034900015BB1F9108951F93182F0E942F1AC19AD0
:1034A000812F0E943E1A1F9108950F931F93CF936F
:1034B000DF93EC0197FF10C003C00E944B1AE80194
:1034C0008E010F5F1F4FCE010E942E088823A9F79F
:1034D00006C021960E944B1A88818823D1F7DF917C
:1034E000CF911F910F9108951F93182F0E942F1AAB
:1034F000C198812F0E943E1A1F910895EF92FF926A
:103500000F931F93CF93DF93CDB7DEB728970FB6F6
:10351000F894DEBF0FBECDBF813099F40E94741ABB
:103520008CE69EEBA1E0B0E000000197A109B10993
:103530008F3F2FEF92072FEFA2072FEFB207A9F1CE
:10354000F3CF823089F40E9492187B018C010E9493
:103550009218DC01CB0128E2829FC00111248E0D5C
:1035600080680E94741A21C0833019F40E9468197F
:103570000DC0843071F40E948F19AB01BC018E0123
:103580000F5F1F4FC8010E940D16C8010E94551AF7
:103590000CC0853039F40E948F19DC01CB010E94E8
:1035A0004B1A03C087E00E94151428960FB6F894B2
:1035B000DEBF0FBECDBFDF91CF911F910F91FF9066
:1035C000EF90089588B3817F88BB87B38E6087BBF7
:1035D00014BA8FEF85BB88E30E94741A88E30E94B7
:1035E000741A88E30E94741A8CE00E94741A86E0B0
:1035F0000E94741A0895DF92EF92FF920F931F9327
:10360000CF93DF937C01062FEC0114C080E090E0A3
:103610000000019622EB82399207D1F7115010F485
:103620000EC01AE00E94F819882381F30E94051A3F
:1036300089930150CE018E19D82E002391F78D2D3C
:103640009927DF91CF911F910F91FF90EF90DF901D
:103650000895629FD001739FF001829FE00DF11DDC
:10366000649FE00DF11D929FF00D839FF00D749FFC
:10367000F00D659FF00D9927729FB00DE11DF91FA8
:10368000639FB00DE11DF91FBD01CF011124089505
:10369000AA1BBB1B51E107C0AA1FBB1FA617B70778
:1036A00010F0A61BB70B881F991F5A95A9F7809594
:1036B0009095BC01CD01089597FB092E05260ED0EB
:1036C00057FD04D014D00AD0001C38F45095409512
:1036D000309521953F4F4F4F5F4F0895F6F79095E6
:1036E0008095709561957F4F8F4F9F4F0895A1E210
:1036F0001A2EAA1BBB1BFD010DC0AA1FBB1FEE1F6C
:10370000FF1FA217B307E407F50720F0A21BB30BB6
:10371000E40BF50B661F771F881F991F1A9469F732
:1037200060957095809590959B01AC01BD01CF018E
:1037300008952F923F924F925F926F927F928F9255
:103740009F92AF92BF92CF92DF92EF92FF920F9330
:103750001F93CF93DF93CDB7DEB7CA1BDB0B0FB63A
:10376000F894DEBF0FBECDBF09942A8839884888F7
:103770005F846E847D848C849B84AA84B984C8848D
:10378000DF80EE80FD800C811B81AA81B981CE0F84
:10379000D11D0FB6F894DEBF0FBECDBFED01089569
:1037A000E199FECFBFBBAEBBE09A11960DB2089572
:1037B000F7DF01921A94E1F70895E199FECFBFBBBC
:1037C000AEBB0DBA11960FB6F894E29AE19A0FBE0D
:0237D00008955A
:1037D2003B003800350032003A0037003400310037
:1037E2003900360033003000000000000000000005
:00000001FF
