:1000000012C02BC02AC0C0CB28C027C028C925C019
:1000100024C023C022C0F6CC20C01FC01EC01DC0FB
:100020001CC01BC01AC011241FBECFE5D4E0DEBF28
:10003000CDBF10E0A0E6B0E0ECEFFBE102C0059020
:100040000D92A036B107D9F713E0A0E6B0E001C0E9
:100050001D92A139B107E1F701C0D2CFCFE5D4E0BD
:10006000DEBFCDBFC1DCB0DB6CD837D18BD1A2D025
:10007000FFCF80E090E00895DC01BF77062EB2DD6F
:100080000895CF93DF93CDB7DEB724970FB6F894DA
:10009000DEBF0FBECDBFFE013196DC01BF7784E02D
:1000A000182E9BDD69817A818B819C8124960FB605
:1000B000F894DEBF0FBECDBFDF91CF910895CF93EF
:1000C000DF93CDB7DEB722970FB6F894DEBF0FBE31
:1000D000CDBFFE013196DC01BF7782E0182E7DDDB9
:1000E00089819A8122960FB6F894DEBF0FBECDBFEC
:1000F000DF91CF910895EF92FF920F931F938C01A0
:1001000090E0E92E90E0F92EC7010896D8DFE80EBE
:10011000F91E000F111FC701800F911FD0DF8E0D38
:100120009F1D1F910F91FF90EF900895EF92FF9206
:100130000F931F938C0130E0E32E30E0F32EC701C4
:100140000A96BDDF23E0000F111F2A95E1F7080F83
:10015000191FC8018E0D9F1D1F910F91FF90EF90E9
:100160000895CF93DF93CDB7DEB721970FB6F894FC
:10017000DEBF0FBECDBFDC01BF7781E0FE0131964F
:10018000182E2BDD8981992721960FB6F894DEBFB2
:100190000FBECDBFDF91CF9108958CE090E0E1DFFD
:1001A000992708959927880F991F825F9F4FD9DF5C
:1001B00099270895EF92FF921F93CF93DF93EE2438
:1001C000FF240DC0C12FDD27CE01B0DF0496C9DFAB
:1001D00080FF02C0CE01DDD00894E11CF11C1E2D71
:1001E00085E090E0BEDFE81668F386E090E067DF28
:1001F000D0D0DF91CF911F91FF90EF900895CF93D2
:10020000DF93DB01BF77EA01FC0121971CF0DDDC05
:100210000192FBCFDF91CF910895CF92DF92EF92C1
:10022000FF920F931F93CF93DF93CDB7DEB728973D
:100230000FB6F894DEBF0FBECDBFC82ED62EEE246B
:10024000FF241EC0012F1127C80170DF48E050E0D5
:10025000BC01CE010196D3DF4B815C81252F332772
:100260008C2D99272817390741F450708D2D992727
:100270004817590711F4C8010BC00894E11CF11C80
:100280001E2D85E090E06DDFE816E0F28FEF90E044
:1002900028960FB6F894DEBF0FBECDBFDF91CF9189
:1002A0001F910F91FF90EF90DF90CF9008950F93E3
:1002B0001F93182F062F602F812FAFDF8F3F49F438
:1002C000812F9927880F991F835F9F4F4ADF182F2F
:1002D000F2CF99271F910F91089580E090E0D1DE31
:1002E0006E5F7F4A85419E4B29F089E005D780E00B
:1002F00090E0089584E090E034DF813019F481E0EB
:1003000090E008958AE0F8D680E090E0089596FDA8
:10031000906808951F93CF93DF93EC01892F99275D
:100320008031910590F43EDF9927880F991F02963E
:10033000BC0181E00DD6182F9927906842D9812FF2
:10034000CAD4FC01D183C08302C0CE011ED6DF9186
:10035000CF911F910895CF93DF93EC0197FD02C0D9
:100360008BE0CAD6CE018070907C8050904819F402
:100370008C2FB1D404C0CE019F73BDDE9068DF9195
:10038000CF9108950BD409DFD6D980E090E019D938
:1003900008952F923F924F925F926F927F928F9229
:1003A0009F92BF92CF92DF92EF92FF920F931F9393
:1003B000CF93DF93CDB7DEB72A970FB6F894DEBFA1
:1003C0000FBECDBF9A878987B1DE1C0148E050E09F
:1003D000BC01CE01019613DF69807A80620C731C28
:1003E0008F812885820F912D911D2E81820F911D65
:1003F000880F991FFDD41AD9029690936E008093AE
:100400006D008F8103D9B7D988249924C301A9DE4F
:10041000B82EC3010196A5DE582EC3010296A1DEB7
:10042000482EBB2009F4E6C220E1B21629F4852D3E
:10043000992787FD9095A5C231E1B31619F4C20141
:100440009F7780C28B2D8250873020F48B2D992787
:10045000039746C186E3B81689F4052D112707FDD9
:100460001095000F111F80916D0090916E00080F84
:10047000191FB4D8F8019183808384C28B2D8B53CC
:10048000843088F40B2D1127000F111F80916D000F
:1004900090916E00080F191F065710409FD8F80161
:1004A000918380832BC1F5E1BF1679F4E52DFF27F9
:1004B000E7FDF095EE0FFF1F80916D0090916E00AB
:1004C000E80FF91F808191815CC28B2D8A518430A5
:1004D00070F4EB2DFF27EE0FFF1F80916D009091C0
:1004E0006E00E80FF91FF49780819181F9C08B2D80
:1004F00089598C3008F04EC0863028F426E0B20EC0
:1005000000E010E002C00AD98C0108D94C0131EAA0
:10051000B316F1F03B1538F08FE9B81669F090EAA0
:10052000B91681F50FC0E3EABE16F1F0BE16B0F0C1
:10053000F4EABF1639F51EC080E090E080169106FF
:1005400001F51DC080E090E080169106D1F017C043
:1005500080E090E080169106A4F411C080E090E065
:100560008016910674F00BC080E090E00815190524
:1005700044F405C080E090E00815190514F081E00E
:1005800090E04C018114910409F436C2640C751C8E
:1005900080E033C227EAB21639F4640C751C8DEF83
:1005A0009FEF680E791E34C28B2D8056853208F07D
:1005B00099C094E7B91641F4B1D888249924881ACF
:1005C000990AC4019F7712C2E4E8BE16D1F4E52D62
:1005D000FF27E7FDF095EE0FFF1F80916D009091D2
:1005E0006E00E80FF91F2081318136FD3068842DBF
:1005F000992787FD9095280F391F3F7731832083F6
:1006000007C28CD84C018AD88C01F8E7BF1609F4D0
:1006100048C0FB15A8F028E6B21661F12B1540F092
:1006200030E6B31609F184E6B81609F057C01FC0CA
:100630009CE6B91639F1E0E7BE1609F04FC02CC0B0
:10064000FEE7BF16E1F1FB1540F02AE7B21681F193
:100650003CE7B31609F042C03BC080E8B81691F100
:1006600092E8B916D9F531C0080D191D37C008191F
:10067000190934C0889D8001899D100D989D100D29
:1006800011242CC08114910411F48DE035D5C801DA
:10069000B4014BDA8B0122C0C801B40146DA8C01E7
:1006A0001DC0082C02C0000F111F0A94E2F716C0EB
:1006B000082C02C0159507950A94E2F70FC008218F
:1006C00019210CC00829192909C00825192506C0B7
:1006D000082C02C0169507950A94E2F7C8019F7787
:1006E00070D70CC0FCEABF1621F021EBB216B9F5A9
:1006F00002C074D74C01B5D7882311F081E07DC1C9
:10070000DF8008850D0D0D5F8E81080F67D77C0196
:1007100065D79A8789870ADD1C0148E050E0BC0153
:10072000CE0101966CDD5AD73101680E791E8D2DF0
:1007300081956CD77BD7EE0CFF1C8E199F09909387
:100740006E0080936D001127C801880F991F7ED21B
:100750003CEAB31609F05BC1C40133D758C188E540
:10076000B81611F43BD703C097E5B91611F436D784
:1007700041C1E9E5BE1611F480E007C0FCE5BF16F3
:1007800031F481E037D71DD781E034D72FC12AEA71
:10079000B21609F04CC0C52CDD2483010C0D1D1DC3
:1007A000C8010796DEDCE82EC8010896DADCFF24D3
:1007B0009E2C88249927882A992AC8010B96D1DC77
:1007C000E82EC8010C96CDDC182F08D72C0188150F
:1007D00099055CF08E2D9927982F8827212F332794
:1007E000822B932B841595051CF4C60103960DC02E
:1007F000C20188199909880F991F880F991FEFE086
:10080000F0E0CE0EDF1E8C0D9D1D8301080F191F19
:10081000C801A7DCE82EC8010196A3DCFF24FE2C4A
:10082000EE249927E82AF92A6E0C7F1C7AC0F2EB95
:10083000BF1619F4C201FFD685C023EBB21629F406
:10084000CDD6BC01C20102D7E3C032E1B31631F408
:10085000852D992787FD9095906C93C08B2D865B95
:10086000833008F063C08FE085150CF45CC0430151
:1008700082189308C2015ADC1C0148E050E0BC0118
:100880008E010F5F1F4FC801BADC96EBB916D9F481
:1008900080E0B0D620D2FC018181282F33276B81E4
:1008A0007C81872F99272817390769F0822FFFDC71
:1008B000482E992787FD909539DC1C0148E050E0CF
:1008C000BC01C8019CDC8E818195A0D6AFD6209159
:1008D0006D0030916E008C01021B130B159507956E
:1008E000A5D6029690936E0080936D008F81288527
:1008F000820F912D911D2E81820F911D880F991FBE
:10090000069676D28F8182D6C4015BD689859A8578
:1009100058D6C80156D65A86498669807A80620CB4
:10092000731C80E06DC0C20146D372C0F4EBBF16E9
:1009300059F454D6D0D1F201EE0FFF1FE80FF91F82
:10094000828193813ED664C025EBB21661F446D60F
:100950004C0144D6C0D1F201EE0FFF1FE80FF91F82
:100960009382828255C03BEBB31619F4C201D2DCEC
:100970004FC08CEBB81641F431D6652DA0D3992722
:1009800090681FD682E03CC09EEBB91619F426D6BB
:1009900082D32CC0E4E5BE1649F4C0D68C01BED685
:1009A0004C011CD6402FB40153D324C0FFE4BF1622
:1009B00049F4B4D68C01B2D64C0110D6A801B401CA
:1009C00026D318C023E3B21649F4A8D64C0106D6A4
:1009D000B40130D3992787FD909508C03EE2B31645
:1009E00039F49CD64C01FAD5B40103D3EAD502C040
:1009F0008CE082D381E004C083E09CEAB91651F018
:100A0000680E711CE1EBBE1609F000CD03C0BB24DB
:100A100083E0F6CF8F818195F9D58F812885820F6C
:100A2000912D911D2E81820F911D880F991F0ED13E
:100A30002A960FB6F894DEBF0FBECDBFDF91CF91DF
:100A40001F910F91FF90EF90DF90CF90BF909F90FC
:100A50008F907F906F905F904F903F902F90089570
:100A60008FE690E00895FB01DC01A40FB51FE40FB1
:100A7000F51F02C082918E93415050408FEF4F3F3F
:100A80005807C1F70895582F609160007091610078
:100A900014C0FB01E159FF4F80818517A1F021812E
:100AA00026954281342F379533273795832F822B14
:100AB000942F96950396680F791F83E0603078072E
:100AC00040F3E0E0F0E0CF0108951F9311E0812FA3
:100AD000DADF892B19F4812F992704C01F5FB9F73A
:100AE00080E090E01F910895EF92FF920F931F9383
:100AF000CF93DF93182F062FBA016D5F7F4FE090E1
:100B00006000F0906100D701A159BF4FED0139811C
:100B1000232F26959A81892F879588278795E82FF7
:100B2000E22BF92FF695E617F70718F480E090E02E
:100B30002EC0CF01861B970B282F220F3170322B2E
:100B4000FD013183292F220F881F8827881F822BC0
:100B500082833695282F279522272795E22FE32B8E
:100B6000F82FF695EE0DFF1DEE58FF4F1083942FD2
:100B7000990F802F8170892B8183952F990F842F56
:100B8000881F8827881F892B828381E090E0DF916E
:100B9000CF911F910F91FF90EF90089510926F00E9
:100BA0008091700081708A6F8093700085E08093DF
:100BB00071000895CF93DF93C82FDD27D06860912F
:100BC00060007091610039C0DB01A159BF4FFD0188
:100BD000418140FF23C046953281232F279522274C
:100BE0002795822F842B932F9695AC015695479588
:100BF00020E030E00EC02F5F3F4FEE0FFF1FEA0FE7
:100C0000FB1F838194818C179D0719F481E090E08C
:100C10001AC0E22FFF27E417F50768F3FD012181D1
:100C200026954281342F379533273795832F822B92
:100C3000942F96950396680F791FF3E060307F0735
:100C400018F280E090E0DF91CF9108950F931F9309
:100C5000CF93DF938C01C0916000D0916100C159A6
:100C6000DF4F8881882311F081E046D280916000B7
:100C7000909161008017910710F485E03DD2898141
:100C800086954A81942F979599279795292F282BF8
:100C9000342F3695E0916000F0916100E01BF10B7C
:100CA000F0936100E0936000E159FF4F1082200F44
:100CB000311F922F990F81818170892B8183832F1E
:100CC000880F221F2227221F282B2283DF91CF91FA
:100CD0001F910F910895CF93DF93D5DEEC01892BFF
:100CE00011F483E009D2CE010396DF91CF910895EC
:100CF000CF93DF93C8DEEC01892B11F483E0FCD1A4
:100D0000298126954A81342F379533273795832FAC
:100D1000822B942F9695DF91CF910895EF92FF92B9
:100D20000F931F93CF93DF930091600010916100A8
:100D30004EC0E801C159DF4F298126954A81342FE1
:100D4000379533273795832F822B942F969523E061
:100D5000E22EF12CE80EF91E88818823B1F192D49D
:100D6000882399F5888126DF882379F560916000D2
:100D700070916100A801461B570BCB018E0D9F1D82
:100D800061597F4F81599F4F6EDEE0916000F09175
:100D90006100E159FF4F3181532F56954281242F35
:100DA000279522272795822F852B942F96958E0D98
:100DB0009F1D282F220F3170322B3183292F220FB4
:100DC000881F8827881F822B82830E0D1F1D83E0BA
:100DD0000030180708F4ADCF0050134011F081E047
:100DE0008BD1DF91CF911F910F91FF90EF900895DC
:100DF000CF92DF92EF92FF920F931F93CF93DF93E7
:100E00007C01009160001091610001591F4FF801B1
:100E10008081882311F081E06FD1F801818186956E
:100E20002281922F979599279795C82EC92AE60176
:100E30006E012695D22EE601CE14DF04A8F46EDFF3
:100E4000F801818186952281922F97959927979510
:100E5000C82EC92AE6016E012695D22EE601CE14CF
:100E6000DF0410F484E048D1E0916000F09161006B
:100E7000EE0DFF1DF0936100E0936000E159FF4F1C
:100E80001082CE018E199F09382F330F21812170D6
:100E9000232B2183292F220F881F8827881F822B2D
:100EA0008283DF91CF911F910F91FF90EF90DF90A0
:100EB000CF900895FF920F931F93CF93DF93F82E57
:100EC0008B01E0916000F0916100E159FF4F818159
:100ED00086954281942F979599279795292F282BAE
:100EE000342F3695CB0103962817390708F016DF03
:100EF0008F2DC9DDEC0169816170A8018F2DF4DDB2
:100F0000882311F482E0F8D08F2DBDDD498146950C
:100F10006A81562F579555275795252F242B362F05
:100F20003695AE01DC012C0F3D1F06C0FA0183810E
:100F3000FD0182834F5F5F4F119642175307B1F750
:100F40008FEF8883DF91CF911F910F91FF900895CC
:100F50000F931F93CF93DF93082FEB01B6DD182F6C
:100F6000AE01602FC1DD882349F4D8DEAE01602FC9
:100F7000812FBADD882311F482E0BED0812F99271A
:100F8000DF91CF911F910F910895892F9927449751
:100F900041F461E070E080E0DBDF9927906811D3D5
:100FA000089588E0A9D00895882311F417D30895EF
:100FB00087E0A2D00895292F33272031310511F47D
:100FC000F3DF08952231310511F4B4D208952331AD
:100FD000310511F47BD208952431310511F4D4D1B7
:100FE00008952C31310511F40AD4089588E084D095
:100FF00008950F931F938B016EDE000F111F080FD2
:10100000191FF801818192811F910F910895EF922C
:10101000FF920F931F938B017A015DDE000F111F6A
:10102000080F191FF801F282E1821F910F91FF90C2
:10103000EF9008950F931F938B014DDE080F191F3A
:10104000F8018181992787FD90951F910F9108954F
:10105000FF920F931F938B01F42E3DDE080F191F93
:10106000F801F1821F910F91FF900895982F8450FD
:10107000823058F0983049F0993051F09A3041F070
:1010800086E03AD080E090E0089581E090E0089515
:1010900082E090E00895EF92FF921F93182F28DED0
:1010A0007C01812F18DEFC018081E0DF682F77272B
:1010B000C70127D5CB011F91FF90EF900895FF92B4
:1010C0000F931F938C01F62E862FD0DF9927089F50
:1010D000B001099F700D189F700D11246F5F7F4F35
:1010E00080E036DF182FF7DDFC01F082812F992791
:1010F0001F910F91FF9008951F93182F85E4CBD473
:1011000082E5C9D482E5C7D48AE3C5D4812F8F5B39
:10111000C2D48AE0C0D4929AC09A81E19CE5A4E04E
:10112000B0E000000197A109B109D8F7C09881E1AA
:101130009CE5A4E0B0E000000197A109B109D8F74F
:10114000EACFAF92BF92DF92EF92FF920F931F937D
:10115000CF93DF93CDB7DEB764970FB6F894DEBFB9
:101160000FBECDBF86D77C01929AC09A85E171D41B
:1011700010E00BC080E090E00000019621E18B3D83
:101180009207D1F71F5F1A3F19F05AD4882391F3C1
:1011900057D4882309F452C0570111E064E1CE010D
:1011A000019683D48431C1F540E0FE0134969E015E
:1011B0002C5E3F4F8191480FE217F307D9F78981E1
:1011C000813091F5DA80D11679F52B8133278D2D79
:1011D000809599272817390739F58C89841721F5C7
:1011E000C5018E010C5F1F4F7C010894E11CF11CAE
:1011F000F80161918F0140D7CE0144960817190775
:1012000011F0C701F1CF80E190E0A80EB91E86E091
:1012100020D41D2D1F5F0AC0882319F486E019D43D
:10122000BDCF89818A3131F085E113D489818A313A
:1012300009F0B4CF86E00DD4C098FFCF92986496A1
:101240000FB6F894DEBF0FBECDBFDF91CF911F91D7
:101250000F91FF90EF90DF90BF90AF9008951F9295
:101260000F920FB60F9211248F939F931DBC1CBC3D
:101270008091620090916300019690936300809347
:1012800062009F918F910F900FBE0F901F90189545
:10129000EF92FF920F931F93CF93DF93FC019B017B
:1012A00077FD06C000E117E240E0EE24FF240BC00A
:1012B0008DE28193309521953F4FF4CFC901B8015C
:1012C00034D49C018E01C901B8012FD46115710578
:1012D00011F041E005C0442319F40130110519F45F
:1012E000862F805D8193C8016AE070E01ED4EB0117
:1012F0000894E11CF11C85E0E816F104F9F610826F
:10130000DF91CF911F910F91FF90EF9008950F9370
:101310001F93CF93DF93FC0197FD03C000E010E023
:101320000FC000E010E003C00F5F1F4FFE01EF0190
:101330002196CF0116D78823B9F705C00F5F1F4F3D
:1013400081918823D9F7C801DF91CF911F910F9127
:1013500008950F931F93CF93DF93EC01FB0177FF69
:101360000AC08F010F5F1F4FCF01FBD689938823DF
:1013700031F0F801F6CF819189938823E1F7DF916D
:10138000CF911F910F910895BF92CF92DF92EF926C
:10139000FF920F931F93CF93DF93CDB7DEB72597BF
:1013A0000FB6F894DEBF0FBECDBF982F882321F46F
:1013B0009BD1FC0110827AC08130A9F480E087D1F2
:1013C000A6DF8C0181E016D10F5F1F4FB80172DDDF
:1013D00080E07DD18C0181E00DD17DDCB801B9DFE9
:1013E000FDD0FCD063C08250833020F0963009F0ED
:1013F00042C021C09230B1F480E069D188DF8C0115
:1014000081E065D184DF0F5F1F4F080F191FB801FE
:1014100080E09EDDB82E81E05AD16C0180E057D18A
:101420007C0113C0933039F480E06BD1BC01CE0154
:1014300001962EDF04C080E0DDD089831A82FE0190
:10144000319680818823E1F71BC08B2D44DC8C0111
:10145000B6017FDF02C00F5F1F4FF8018081882334
:10146000D1F7B701C80175DFB9D0B8D08B2D992756
:101470009068A7D01BC09530C9F087E03DDE16C04C
:101480007E010894E11CF11C8F010E191F0981E0F7
:101490001ED13DDF0F5F1F4F080F191FB80180E0FD
:1014A00057DDB82E81E013D16C01CFCF25960FB652
:1014B000F894DEBF0FBECDBFDF91CF911F910F918A
:1014C000FF90EF90DF90CF90BF9008951F93182F5B
:1014D00085D0113011F4B4D203C0123021F4CED231
:1014E00099276FD002C087E007DE1F910895FF9211
:1014F0000F931F93CF93DF93EC01F62E97FF0DC050
:1015000002C0C9D2E8018E010F5F1F4FCE0129D65C
:101510008823B9F705C02196BED288818823D9F7E0
:10152000FF2011F08AE0B7D2DF91CF911F910F9188
:10153000FF9008950F931F93CF93DF93CDB7DEB73E
:1015400028970FB6F894DEBF0FBECDBF813019F4D7
:10155000CBD061E00BC0823059F4E0D0BC018E01E9
:101560000F5F1F4FC80194DE61E0C801C0DF1DC0DE
:10157000843019F4B9D060E0F9CF853049F4CED089
:10158000BC018E010F5F1F4FC80182DE60E0EDCF0E
:10159000833021F4C3D07FD28AE003C0863019F4AF
:1015A000BDD079D202C087E0A7DD18D028960FB64B
:1015B000F894DEBF0FBECDBFDF91CF911F910F9189
:1015C0000895E0916600F09167003296F09367000D
:1015D000E09366003297938382830895E0916600DA
:1015E000F0916700808191813297F0936700E093DA
:1015F000660008959927880F991FE0916600F09181
:101600006700E81BF90B808191810895992787FD78
:101610009095880F991F2091660030916700280FE0
:10162000391F30936700209366000895809166000B
:10163000909167000895880F991FE0916400F091E0
:101640006500E80FF91F808191810895880F991F27
:10165000E0916400F0916500E80FF91F71836083E9
:10166000089540E050E0209166003091670080913D
:101670006800909169002817390711F441E050E0A3
:10168000CA010895482F55275068809164009091B1
:1016900065002091660030916700281B390B359555
:1016A00027952F5F3F4FFC0160E070E00AC08191F9
:1016B00091918417950719F481E090E008956F5F88
:1016C0007F4F6217730799F780E090E0089599279C
:1016D000880F991FE0916600F0916700E81BF90BF5
:1016E0008081918138D60895E0916600F09167007D
:1016F000808191813297F0936700E09366002BD64A
:1017000008959927880F991FE0916600F09167006E
:10171000E81BF90B80819181FAD50895E09166006C
:10172000F0916700808191813297F0936700E09398
:101730006600EDD508950F931F93082F91D99093CC
:101740006500809364000297909367008093660021
:101750001127000F111FC80102964ADB8091660015
:1017600090916700800F911F9093670080936600AF
:101770001F910F910895809166009091670090935A
:1017800069008093680008951F920F920FB60F9220
:1017900011248F939F9380916A008F5F80936A00DA
:1017A000893459F410926A0080916B0090916C001A
:1017B000019690936C0080936B009F918F910F9096
:1017C0000FBE0F901F9018958FE387BB84EF81BBEE
:1017D00089E185BD8FE683BD89B7806889BF81EACD
:1017E0008FBD82E08EBD86E886B99798979884B3BE
:1017F000836084BB85B38C7F85BB78940895EF921A
:10180000FF920F931F93CF93DF93813061F4E6DE55
:1018100080FF02C0929A01C0929881FF02C0C09AD4
:10182000DCC0C098DAC0823079F4D8DE9C01109216
:101830006C0010926B0080916B0090916C0082178D
:10184000930708F0CAC0F7CF833089F567DFEC0152
:1018500065DF9C0188B38F7C88BBD7FF05C0C49A25
:10186000D095C195DF4F03C0209709F0C59A82B388
:101870008F7C82BB37FF05C0949A309521953F4FEE
:1018800004C02115310539F0959A2F3F310519F023
:1018900014F02FEF30E03BBD2ABDCE01CF3FD10584
:1018A00019F014F08FEF90E099BD88BD96C0843098
:1018B00039F494DE892B11F0969A8FC096988DC0DA
:1018C0008530B9F48BDEEC0189DE892B21F4209779
:1018D00009F07BC008C0979884B3836084BB85B34C
:1018E000836085BB01C0A998CD2B09F076C0A8986C
:1018F00074C0863059F472DE892B11F082E401C085
:1019000083E487B9369A349BFECF10C08730B9F490
:1019100084B38C7F84BB979A61DE892B11F080E4BD
:1019200001C081E487B9369A349BFECF349A24B142
:1019300085B19927982F8827820F911D44C0883040
:1019400009F04BC04BDE892B59F18B9A939A84E4B2
:1019500087B980E090E000000196843E9105D9F7B8
:10196000369A349BFECF349A84B125B13327322F77
:101970002227280F311D93987901F694E7940027C8
:10198000112760E07CEF80E090E06E197F09800B0A
:10199000910B44275527DCD0DA01C901CE9713C03B
:1019A0008B9880E090E000000196843E9105D9F785
:1019B00080B3992723E0969587952A95E1F780953E
:1019C000909581709070FDDD08C0979884B3836016
:1019D00084BB85B3836085BB86CFDF91CF911F9198
:1019E0000F91FF90EF90089510926F031092900363
:1019F00010BC8FEC89B91BB888E98AB986E880BD2C
:101A0000789408951F920F920FB60F9211248F931E
:101A10009F93EF93FF9380916F039CB1E0E7F3E016
:101A2000E80FF11D90838F5F8F7180936F03FF919B
:101A3000EF919F918F910F900FBE0F901F9018956F
:101A400080916F0320919003821B99278F71907072
:101A50000895982F5D9BFECF8AB18F768AB99CB985
:101A60005D9BFECF80E090E00000019626E182358C
:101A70009207D1F78AB180698AB90895909190034D
:101A8000E0E7F3E0E90FF11D80819F5F9F71909384
:101A90009003992708951F93182F8A3011F48DE031
:101AA000D8DF812FD6DF1F910895DF92EF92FF924A
:101AB0000F931F93CF93DF937C01062FEC0112C08D
:101AC00080E090E00000019629E589349207D1F783
:101AD000115010F40CC01AE0B3DF882389F3CEDF75
:101AE00089930150CE018E19D82E0023A1F78D2D98
:101AF0009927DF91CF911F910F91FF90EF90DF9089
:101B00000895AA1BBB1B51E107C0AA1FBB1FA61744
:101B1000B70710F0A61BB70B881F991F5A95A9F796
:101B200080959095BC01CD01089597FB092E07265D
:101B30000AD077FD04D0E5DF06D000201AF47095B6
:101B400061957F4F0895F6F7909581959F4F089581
:101B500097FB092E05260ED057FD04D014D00AD0CD
:101B6000001C38F450954095309521953F4F4F4FCC
:101B70005F4F0895F6F790958095709561957F4F2A
:101B80008F4F9F4F0895A1E21A2EAA1BBB1BFD0188
:101B90000DC0AA1FBB1FEE1FFF1FA217B307E4074C
:101BA000F50720F0A21BB30BE40BF50B661F771FA4
:101BB000881F991F1A9469F7609570958095909584
:101BC0009B01AC01BD01CF010895E199FECFBFBBE0
:101BD000AEBBE09A11960DB20895F7DF01921A9408
:101BE000E1F70895E199FECFBFBBAEBB0DBA1196E8
:0C1BF0000FB6F894E29AE19A0FBE089537
:00000001FF
